:0B0B3F00120B13120B3312097880FB1D
:10064E004200790000420077000048007B7FBFDF48
:05065E00EFF7FBFDFEBB
:0B0B4A00EF1FAC0670011E4C70F6227D
:100A5E00E0FBA3E0FAA3E0F98F828E83120481FFFC
:0C0A6E00120A7A7F647E00120B4AE4FF3B
:100A7A00C2B6C2B5E4FEEFC4131313540124FF92A5
:100A8A00B4EF25E0FFD2B60000C2B60EEEB408E617
:060A9A00D2B50000C2B558
:010AA0002233
:100A1A00EFC394014039EFD394085033EDC39401E6
:100A2A00402DEDD394085027EF14FF747F7EFFA862
:100A3A0007088005CEC313CE13D8F9F580ED14FF4D
:100A4A007401A807088002C333D8FCFF120A7AE4AB
:040A5A00FF020A7A13
:0B07AC00900089EBF0A3EAF0A3E9F055
:1007B700E4A3F0A3F075807F90008CF0A3F0900085
:1007C7008CE0FEA3E0FF247BF58274003EF583E016
:1007D700F580900089120A5E90008DE004F07006A3
:1007E70090008CE004F0C390008DE0940890008C9A
:0707F700E06480948040C71C
:0107FE0022D8
:1001A80090006AEBF0A3EAF0A3E9F0A3ECF0A3ED6A
:0101B800F056
:1001B900E4A3F0A3F0A3F0A3F0A3F0A3F0A3F0A3AA
:1001C900F075807F900073F0A3F090006DE0FEA3BE
:1001D900E07803C333CE33CED8F9FFC3900074E07F
:1001E9009FEE6480F8900073E06480984002611487
:1001F900E4900071F0A3F0E490006FF0A3F0900098
:100209006FE0FEA3E0FF247BF58274003EF583E0F6
:10021900F58090006A120A5E900070E004F07006A2
:1002290090006FE004F0C3900070E0940890006FB4
:10023900E06480948040C7900072E004F0700690FA
:100249000071E004F0C3900072E09450900071E0F6
:100259006480948040A190006AE0FBA3E0FAA3E0E7
:10026900F9120468FF900075E4F0A3EFF0E4900040
:100279006FF0A3F090006DE0FEA3E07803C333CEE6
:1002890033CED8F924FFFFEE34FFFE90006FE0FC77
:10029900A3E0FDC39FEE6480F8EC648098502A9037
:1002A900006AE0FBA3E0FAA3E0F98D828C83A31234
:1002B90004818D828C831204AE900070E004F0708A
:1002C900B390006FE004F080AB900075A3E0FD905F
:1002D900006DE0FEA3E07803C333CE33CED8F92412
:1002E900FFFFEE34FFFE90006AE0FBA3E0FAA3E013
:1002F900F98F828E83ED1204AE900074E004F060F1
:0B0309000221D3900073E004F021D328
:0103140022C6
:100AE200D3EF9400EE940040147D6E7C00ED1D70F7
:0D0AF200011CED4C70F7EF1F70E61E80E355
:010AFF0022D4
:07000300D288D2A8D2AF227F
:070B5500D28AD2AAD2AF221E
:100B1300438901758CFC758A18D2A9D2AFD28C2275
:100B2300438910758DFC758B18D2ABD2AFD28E2250
:100B0000759850758920758DFD758BFDD2ACD2AF6F
:030B1000D28E2260
:0C066300420083000044008500000000FD
:0C0B330075BCC8759D01E4F5BDF5BE223F
:100AA100E5BC30E4FBAFBD900083E4F0A3EFF09030
:100AB1000083E0FEA3E07802C333CE33CED8F9FF42
:100AC100900083EEF0A3EFF0ADBEED4FFF900083F9
:100AD100EEF0A3EFF075BCC8900083E0FEA3E0FF49
:010AE10022F2
:10066F00420008000042000E00004200100001414D
:10067F000068014100690142001200006028001467
:10068F00000100000000000000000000000000005A
:10069F00000000000000000000000000000000004B
:1006AF0000000000000000006028003C0001000076
:1006BF00000000000000000000000000000000002B
:1006CF00000000000000000000000000000000001B
:1006DF000000000042000200044200040004420037
:1006EF000A0001420064000042000C000042006654
:0C06FF0000004200060000420000000065
:10097800900002A3E0FFA3A3E0FD120A1A12000EE2
:1009880012091812070CEF4E603A90000AE4F0A31F
:1009980004F0E4900064F0A3F090000CF0A3F09051
:1009A8000066F0A3F0A304F0A3F0900010E4F0A315
:1009B80004F0E4A3F0A3F0A3F0A304F090003CE457
:0509C800F0A304F02281
:10057300E4FDFC900008E0FEA3E0FF120A0B120961
:10058300CD7C007D081204D0ED2401FEE43C9000F4
:1005930002F0A3CEF01209CD7C007D081204D0ED49
:1005A3002401FFE43CFE900004F0A3EFF0FD900073
:1005B30002A3E0FF120A1AE4FCFDD3900011E09DB0
:1005C300EC6480F8900010E0648098407DED25E0B5
:1005D300FFEC33FE74142FF58274003EF583E0FEC6
:1005E300A3E0FF900002E06E7003A3E06F7054ED90
:1005F30025E0FFEC33FE743C2FF58274003EF58357
:10060300E0FEA3E0FF900004E0B50637A3E0B507E2
:10061300321209CD7C007D081204D0ED2401FEE4E2
:100623003C900002F0A3CEF01209CD7C007D0812AD
:1006330004D0ED2401FEE43C900004F0A3CEF0745A
:0A064300FFFCFD0DBD00010CA1BD80
:01064D00228A
:10070C00E4FDFCD3900011E09405900010E06480AF
:10071C0094804072900011E024FFFF900010E034B0
:10072C00FFFEC3ED9FEE6480F8EC6480985057EDAB
:10073C0025E0FFEC33FE74142FF58274003EF58334
:10074C00E0FEA3E0FF900068E0FB3395E0FAEFB524
:10075C00032DEEB50229ED25E0FFEC33FE743C2FA2
:10076C00F58274003EF583E0FEA3E0FF900069E0A3
:10077C00FB3395E0FAEFB50306EEB5020280180DD7
:10078C00BD00010C808E900068E0600B640960076E
:0F079C00A3E06003B409057E007F0122E4FEFFA5
:0107AB00222B
:10091800E4900092F0A3F0900011E024FFFE900014
:1009280010E034FF900092F0A3CEF0900092E0FE29
:10093800A3E0FFC3EE648094804034EF25E0FDEE31
:1009480033FC74142DF58274003CF583A3E0FF7426
:100958003C2DF58274003CF583A3E0FD120A1A9041
:0F0968000093E024FFF0900092E034FFF080BC99
:01097700225D
:10000E00E4900092F0A3F0120315C390000FE09459
:10001E00BC90000EE064809482500221A790000AEA
:10002E00E07004A3E064017006900068E004F090B4
:10003E000064E07004A3E064017006900068E014B0
:10004E00F090000CE07004A3E0640170069000696B
:10005E00E004F0900066E07004A3E0640170069086
:10006E000069E014F0900068E0FF3395E0FE900028
:10007E0002E06E7003A3E06F7065900069E0FF33DD
:10008E0095E0FE900004E0B50655A3E0B50750904C
:10009E000011E004F07006900010E004F0120573F9
:1000AE00900068E0FD3395E0FC900011E025E0FF44
:1000BE00900010E033FE74122FF58274003EF5832B
:1000CE00ECF0A3EDF0900069E0FD3395E0FC743A9E
:1000DE002FF58274003EF583ECF0A3EDF021A09095
:1000EE000068E0FD3395E0FC900011E025E0FF9004
:1000FE000010E033FE74142FF58274003EF583EC8D
:10010E00F0A3EDF0900069E0FD3395E0FC743C2F18
:10011E00F58274003EF583ECF0A3EDF0E4900092CE
:10012E00F0A3F0900010E0FEA3E0FF900092E0FC40
:10013E00A3E0FDC39FEE6480F8EC6480985053ED0D
:10014E0025E0FFEC33FE74162FF58274003EF58326
:10015E00E0FCA3E0FD74142FF58274003EF583ECF1
:10016E00F0A3EDF0743E2FF58274003EF583E0FCB3
:10017E00A3E0FD743C2FF58274003EF583ECF0A3F2
:10018E00EDF0900093E004F07006900092E004F021
:09019E008091E490000EF0A3F042
:0101A7002235
:1003150020A1187FE87E03120B4A20A10990001244
:10032500E4F0A37450F020A15180FB20A0187FE8D1
:100335007E03120B4A20A009900012E4F0A3744D2D
:10034500F020A03680FB20B3187FE87E03120B4A0D
:1003550020B309900012E4F0A37448F020B31B8089
:10036500FB20B2167FE87E03120B4A20B2099000EB
:1003750012E4F0A3744BF030B2FD900012E0FEA33E
:10038500E0FFEE60028167EF24B5607424FE700221
:10039500813424FD603B24086002816790000AE0F7
:1003A5007004A3E06401600E900064E07004A3E0B3
:1003B500640160028167E490000AF0A3F090006494
:1003C500F0A3F090000CF0A3F0900066F0A304F009
:1003D5002290000AE07004A3E06401600C900064C0
:1003E500E07004A3E064017079E490000AF0A3F0E2
:1003F500900064F0A3F090000CF0A304F0E4805C9E
:1004050090000CE07004A3E06401600C900066E0CD
:100415007004A3E06401704AE490000AF0A3F09030
:100425000064F0A304F0E490000CF0A3F0802D909C
:10043500000CE07004A3E06401600C900066E070BD
:1004450004A3E06401701B90000AE4F0A304F0E447
:10045500900064F0A3F090000CF0A3F0900066F01B
:03046500A3F022DF
:03000B00020800E8
:08080000C0E0C083C082C0D03B
:10080800758CFC900001E004F07006900000E00494
:10081800F090000FE004F0700690000EE004F090F5
:10082800007AE024FFF0900079E034FFF0D3A3E0F1
:100838009400900079E0648094805004E4F0A3F080
:10084800C3900001E09464900000E06480948040CC
:100858002A900009E004F07006900008E004F09087
:100868000000E4F0A3F0D3900009E094D0900008D1
:0B087800E0648094874004E4F0A3F0EB
:09088300D0D0D082D083D0E03245
:0300000002088C67
:0C088C00787FE4F6D8FD7581070208D3E0
:10046800BB010689828A83E0225002E722BBFE0292
:09047800E32289828A83E49322C5
:10048100BB010CE58229F582E5833AF583E0225030
:1004910006E92582F8E622BBFE06E92582F8E2227A
:0D04A100E58229F582E5833AF583E4932294
:1004AE00F8BB010DE58229F582E5833AF583E8F084
:1004BE00225006E92582C8F622BBFE05E92582C830
:0204CE00F22218
:1004D000C2D5EC30E709B2D5E4C39DFDE49CFCEE47
:1004E00030E715B2D5E4C39FFFE49EFE120506C3B4
:1004F000E49DFDE49CFC800312050630D507C3E4AF
:060500009FFFE49EFE22B5
:1009CD0090008E12055B7810EC4D4E4F70047CA597
:1009DD007DA5C3EC13FCED13FDEE13FEEF13FF50DD
:1009ED0010EC64CCFCED644CFDEE644EFEEF64CE79
:1009FD00FFD8DF90008E120567EE547FFE22900027
:0D0A0D008EEEF0EFA3F0A374A5F0A3F0228D
:10089800020B3FE493A3F8E493A34003F68001F22C
:1008A80008DFF48029E493A3F85407240CC8C33361
:1008B800C4540F4420C8834004F456800146F6DF30
:1008C800E4800B010204081020408090064EE47E6C
:1008D800019360BCA3FF543F30E509541FFEE49325
:1008E800A360010ECF54C025E060A840B8E493A3EC
:1008F800FAE493A3F8E493A3C8C582C8CAC583CA17
:10090800F0A3C8C582C8CAC583CADFE9DEE780BECE
:01070B0000ED
:10050600BC000BBE0029EF8DF084FFADF022E4CCD9
:10051600F875F008EF2FFFEE33FEEC33FCEE9DECA2
:10052600984005FCEE9DFE0FD5F0E9E4CEFD22EDE8
:10053600F8F5F0EE8420D21CFEADF075F008EF2F32
:10054600FFED33FD4007985006D5F0F222C398FD23
:050556000FD5F0EA22C0
:0C055B00E0FCA3E0FDA3E0FEA3E0FF2213
:0C056700ECF0A3EDF0A3EEF0A3EFF02207
:00000001FF
