:020000040800F2
:10000000681300201D0400082102000823020008D4
:10001000270200082B0200082F0200080000000041
:100020000000000000000000000000003302000893
:1000300035020008000000003702000839020008FD
:1000400037040008370400083704000837040008A4
:100050003704000837040008370400083704000894
:100060003704000837040008370400083704000884
:100070003704000837040008370400083704000874
:100080003704000837040008370400083704000864
:100090003704000837040008370400083704000854
:1000A0003704000837040008370400083704000844
:1000B000613C000837040008493C00083704000888
:1000C0003704000837040008370400083704000824
:1000D00037040008C7250008412600083704000837
:1000E000370400083704000837040008DFF80CD094
:1000F00004F04CFB00480047F3010008681300209F
:1001000000BF4549098801F040010029F9D0424962
:10011000091D0880704700BF4049098801F040016F
:100120000029F9D03D49091D0880704707B5ADF891
:100130000010ADF8022000980EBD0FB42DE9FC416F
:1001400000250026089800EB8000871D384605F042
:10015000E1FB0446AA202070BB206070089800EBE9
:10016000800000909DF80000A0709DF80100E070F4
:100170009DF8020020719DF80300607109A80190AC
:1001800000BF22E00198C01D20F007000190D0E9D7
:100190000021DDF804C00CF1080C1046CDF804C0B5
:1001A00004F0A0F900900B2105EB8500801D21547F
:1001B000002607E01DF8061005EB8500C01D304441
:1001C0002154761C042EF5DB6D1C08988542D9DB82
:1001D000002503E0605DFFF79EFF6D1CBD42F9DB6B
:1001E000204605F06FFB00200190BDE8FC015DF8A2
:1001F00014FB00BF00BF00BF00BF02F0FFF84FF4C8
:10020000A06000F01DF94FF4165002F070F902E002
:100210000C20FFF775FFFBE7004400400038014069
:10022000704700BFFEE700BFFEE700BFFEE700BF6C
:10023000FEE7704770477047704700000CB500201C
:10024000019000906C48006840F480306A49086072
:1002500000BF6948006800F4003000900198401C1D
:100260000190009818B90198B0F5A06FF1D16248DB
:10027000006800F4003010B10120009001E000207F
:1002800000900098012843D15C48006840F01000BD
:100290005A4908600846006820F0030008600846D4
:1002A000006840F0020008605348406852494860C6
:1002B0000846406848600846406840F480604860EE
:1002C0000846406820F47C1048600846406840F4C6
:1002D000E81048600846006840F08070086000BF81
:1002E0004548006800F000700028F9D04248406896
:1002F00020F00300404948600846406840F0020092
:10030000486000BF3C48406800F00C000828F9D164
:100310000CBD10B5FFF792FF10BD10B53648006850
:1003200040F00100344908600846406834490840FC
:100330003149486008460068324908402E49086043
:100340000846006820F4802008600846406820F4D1
:10035000FE0048604FF41F008860FFF7DAFF4FF09F
:1003600000602949086010BD10B50021002000225E
:10037000214B5B6803F00C0121B1042906D0082948
:1003800028D107E0214B224C236027E01F4B204C53
:10039000236023E0184B5B6803F47010164B5B6816
:1003A00003F48032022303EB904022B9194B4343FC
:1003B000174C23600DE0104B5B6803F4003323B14E
:1003C000144B4343124C236003E0104B4343104C47
:1003D000236003E00D4B0E4C236000BF00BF064BB3
:1003E0005B68C3F303130C4CE15C094B1B68CB4007
:1003F000074C236010BD00000010024000200240A6
:100400000000FFF8FFFFF6FE08ED00E000127A00A2
:100410008000002000093D0084000020064880473D
:1004200006480047FEE7FEE7FEE7FEE7FEE7FEE7D9
:10043000FEE7FEE7FEE7FEE71B030008ED0000080D
:1004400031490143314A1160704770B500210023E2
:100450000F22C47804B32D4C246804F4E064C4F57E
:10046000E064210AC1F10403CA40447804FA03F1AC
:100470008478144021430901254C0678A15504785D
:1004800004F01F050124AC4005786D11AD0005F1A5
:10049000E025C5F8004109E0047804F01F050124B7
:1004A000AC401C4D0678761145F8264070BD1A4ABE
:1004B0000A400243154B1B1F1A60704739B1134A9B
:1004C000121D12680243114B1B1D1A6006E00F4AF1
:1004D000121D126882430D4B1B1D1A6070470428C1
:1004E00008D14FF0E021096941F004014FF0E0220A
:1004F000116107E04FF0E021096921F004014FF09C
:10050000E0221161704700000000FA050CED00E0E8
:1005100000E400E080E100E080FFFF1F01460020D2
:10052000FE4A106800F03800084310607047FB492D
:10053000096821F00801F94A116011460968014370
:1005400011607047F549096821F01001F34A116004
:1005500011460968014311607047F148EF4948604E
:10056000F04848607047EE48EC494860ED48486004
:100570007047EA48006940F08000E8490861704728
:10058000E648006940F08000E449086170470420B3
:10059000E249C96801F0010109B101200EE0DF491B
:1005A000C96801F0040109B1022007E0DB49C9680C
:1005B00001F0100109B1032000E00420704700B5EC
:1005C00002460423FFF7E3FF034603E0FFF7DFFFE4
:1005D0000346521E012B01D1002AF7D102B905238F
:1005E000184600BD30B5044604254FF43020FFF70F
:1005F000E6FF0546042D17D1C848006940F0020007
:10060000C649086108464461006940F0400008613D
:100610004FF43020FFF7D3FF0546C048006941F68C
:10062000FD710840BD490861284630BD10B504245D
:100630004FF43020FFF7C3FF0446042C16D1B7480F
:10064000006940F00400B54908610846006940F0BF
:10065000400008614FF43020FFF7B1FF0446AF4877
:10066000006941F6FB710840AC490861204610BDA5
:1006700000B502460423FFF78AFF034603E0FFF7B5
:1006800086FF0346521E012B01D1002AF7D102B981
:100690000523184600BD10B504244FF43020FFF7A1
:1006A000E7FF0446042C16D19C48006940F0040082
:1006B0009A4908610846006940F0400008614FF41B
:1006C0003020FFF7D5FF04469448006941F6FB71DE
:1006D000084092490861204610BD00208F49C96931
:1006E00001F0020109B1012000E00020704730B59F
:1006F000A5250424FFF7F1FF00B100254FF43020B9
:10070000FFF75DFF0446042C3AD185488349886091
:10071000844888600846006940F020000861084667
:10072000006940F0400008614FF43020FFF747FFB8
:100730000446042C1BD17948006941F6DF7108405A
:10074000764908610846006940F010000861764863
:100750000580E002FFF733FF0446052C10D06F48F8
:10076000006941F6EF7108406C49086108E0052C0A
:1007700006D06A48006941F6EF7108406749086190
:10078000204630BD78B506460C4604250020009072
:10079000E802FFF714FF0546042D24D15F480069E5
:1007A00040F001005D4908613480E802FFF707FF6F
:1007B0000546042D10D1B01C0090200C0099088033
:1007C000E802FFF7FCFE05465448006941F6FE7159
:1007D00008405249086106E05048006941F6FE7140
:1007E00008404E490861284678BD70B504460D465C
:1007F0000426F002FFF7E3FE0646042E11D1474817
:10080000006940F00100454908612580F002FFF7CA
:10081000D6FE06464148006941F6FE7108403F4950
:100820000861304670BD70B505460E460424E002EE
:10083000FFF7C5FE0446042C17D1394837498860B4
:10084000384888600846006940F0100008612E8032
:10085000E002FFF7B4FE0446052C06D02F480069DD
:1008600041F6EF7108402D490861204670BD2DE921
:10087000F04304464FF6FF763746B046B1460425AE
:10088000E443E6B2C4F30727C4F307484FEA146908
:10089000E802FFF794FE0546042D49D120481F4980
:1008A0008860204888600846006940F010000861B0
:1008B000FF2E06D01C4808300680E802FFF77FFEB6
:1008C0000546042D08D1FF2F06D017480A300780AF
:1008D000E802FFF774FE0546042D0AD1B8F1FF0FB8
:1008E00007D011480C30A0F80080E802FFF767FE3F
:1008F0000546042D0AD1B9F1FF0F07D00A480E3082
:10090000A0F80090E802FFF75AFE0546052D0FD02B
:100910000248006941F6EF71084007E000200240FC
:1009200023016745AB89EFCD00F8FF1F66490861D9
:100930002846BDE8F08330B5054604244FF4302046
:10094000FFF73DFE0446042C41D160485E498860B3
:100950005F4888600846006940F02000086108464A
:10096000006940F0400008614FF43020FFF727FE97
:100970000446042C22D15448006941F6DF71084036
:10098000514908610846006940F0100008611DB136
:1009900000205049088002E0A5204E4908804FF40D
:1009A0003020FFF70CFE0446052C10D046480069A5
:1009B00041F6EF7108404449086108E0052C06D073
:1009C0004148006941F6DF7108403F49086120460F
:1009D00030BDF0B505460E46174604243B483A495B
:1009E00088603B488860E002FFF7E9FD0446042C7C
:1009F00019D13548006940F010003349086147F0CB
:100A0000F800304328433349891C0880E002FFF78F
:100A1000D6FD0446052C06D02B48006941F6EF713F
:100A20000840294908612046F0BD2748C069800870
:100A300070472548006A704700202349096801F083
:100A4000200109B1012000E00020704729B11E4AB1
:100A5000126902431C4B1A6104E01B4A126982436B
:100A6000194B1A61704701460020012908D1164A26
:100A7000D26902F001020AB1012008E0002006E07C
:100A8000114AD2680A400AB1012000E000207047F4
:100A90000D49C860704704200B49C96801F0010185
:100AA00009B101200EE00849C96801F0040109B14B
:100AB000022007E00449C96801F0100109B10320D0
:100AC00000E0042070470000002002402301674539
:100AD000AB89EFCD00F8FF1F10B50446CC48844227
:100AE00008D10121042000F02DFB0021042000F09A
:100AF00029FB46E0C748844208D10121082000F0C4
:100B000021FB0021082000F01DFB3AE0C24884428E
:100B100008D10121102000F015FB0021102000F069
:100B200011FB2EE0BD48844208D10121202000F0B5
:100B300009FB0021202000F005FB22E0B848844298
:100B400008D10121402000F0FDFA0021402000F0F2
:100B5000F9FA16E0B348844208D10121802000F060
:100B6000F1FA0021802000F0EDFA0AE0AE4884425C
:100B700007D10121801500F0E5FA0021A01500F051
:100B8000E1FA10BD10B50121084600F0DBFA0021A2
:100B9000012000F0D7FA10BD2DE9F04102460025F2
:100BA0000026002000230024002791F803C00CF049
:100BB0000F0591F803C00CF0100CBCF1000F03D02E
:100BC00091F802C04CEA050591F800C0BCF1000F95
:100BD00031D0146800202BE04FF0010C0CFA00F328
:100BE000B1F800C00CEA03069E4220D183004FF00A
:100BF0000F0C0CFA03F7BC4305FA03FC4CEA04049F
:100C000091F803C0BCF1280F06D14FF0010C0CFA8B
:100C100000FCC2F814C00AE091F803C0BCF1480F10
:100C200005D14FF0010C0CFA00FCC2F810C0401CBA
:100C30000828D1D31460B1F800C0BCF1FF0F34DD37
:100C4000546800202EE000F1080C4FF0010808FA6B
:100C50000CF3B1F800C00CEA03069E4221D18300D8
:100C60004FF00F0C0CFA03F7BC4305FA03FC4CEAF7
:100C7000040491F803C0BCF1280F05D100F1080C61
:100C800008FA0CF8C2F8148091F803C0BCF1480FC0
:100C900007D100F1080C4FF0010808FA0CF8C2F86F
:100CA0001080401C0828CED35460BDE8F0814FF678
:100CB000FF710180022181700421C17070470246DA
:100CC000002093680B400BB1012000E0002070472A
:100CD0000146886880B2704702460020D3680B4006
:100CE0000BB1012000E0002070470146C86880B2C7
:100CF000704701617047416170470AB1016100E0CE
:100D000041617047C16070474FF480320A4382618D
:100D10008161826182698269704702460020434B8B
:100D200018684FF68073184040EA021008433F4BA2
:100D3000186070473E49C8617047F0B50A46002305
:100D400000240021002500F00046B6F1004F02D13A
:100D5000364EF16901E0354E7168C0F3034583B248
:100D600000F44016B6F5401F08D121F070612F4EF7
:100D7000766826F070662D4F7E6012E000F48016D3
:100D8000B6F5801F06D1032606FA05F4A14341F00B
:100D9000706106E0460D360103FA06F6B14341F0F4
:100DA000706122B1460D360103FA06F6314300F0B8
:100DB0000046B6F1004F02D11C4EF16101E01B4E1E
:100DC0007160F0BD30B500228B071C0F0F2303FAB2
:100DD00004F2164B08338C1053F824309343134C11
:100DE00008348D1044F8253023468C1053F82430F5
:100DF0008C07240F00FA04F423430C4C08348D10A4
:100E000044F8253030BD0A49DC31086070470000E5
:100E100000080140000C0140001001400014014096
:100E200000180140001C014000200140000001406A
:100E300000002042DF48006840F00100DD49086002
:100E400008464068DC490840DA49486008460068BE
:100E5000DA490840D74908600846006820F4802035
:100E600008600846406820F4FE0048604FF41F0008
:100E700088607047CF49096821F48031CD4A1160FC
:100E80001146096821F480211160B0F5803F03D03C
:100E9000B0F5802F0ED106E0C649096841F48031D3
:100EA000C44A116007E0C349096841F4A021C14A5E
:100EB000116000E000BF00BF704710B5014600227E
:100EC000002300204A11012A02D1BA4C236806E00F
:100ED000022A02D1B74C236A01E0B64C636A01F0E2
:100EE0001F02012494401C400CB1012000E00020AE
:100EF00010BD38B5002000900024002500BF31202F
:100F0000FFF7DBFF05460098401C00900098B0F505
:100F1000A06F01D0002DF2D03120FFF7CEFF08B135
:100F2000012400E00024204638BD01460020A14AEB
:100F3000106820F0F80040EAC10010607047A04936
:100F400008607047024600209A4B586820F47C10D5
:100F500042EA01031843974B586070479849086666
:100F6000704701460020934A506820F00300084370
:100F7000506070478F48406800F00C007047014691
:100F800000208C4A506820F0F00008435060704701
:100F900001460020874A506820F4E0600843506012
:100FA000704701460020834A506820F4605040EAB0
:100FB000C1005060704729B17E4A527A02437D4B8E
:100FC0005A7204E07B4A527A82437A4B5A727047D3
:100FD0007B49D8310860704701460020754A506847
:100FE00020F440400843506070470021714A20328D
:100FF0001170704A82F82010012802D004280AD10A
:1010000004E001216B4A2032117005E00521694A94
:101010002032117000E000BF00BF704769490860CE
:1010200070476449096A0143624A11627047654921
:1010300044390860704730B50021002200240023A5
:101040005C4D6D6805F00C0121B1042905D008291B
:1010500023D105E05C4D056022E05B4D05601FE09B
:10106000544D6D6805F47012524D6D6805F480346E
:10107000022505EB92421CB9544D554305600BE027
:101080004C4D6D6805F400351DB1504D554305605C
:1010900002E04D4D5543056002E04B4D056000BF39
:1010A00000BF444D6D6805F0F0010909484D6B5CC7
:1010B0000568DD4045603F4D6D6805F4E061090A53
:1010C000434D6B5C4568DD4085603A4D6D6805F4C5
:1010D0006051C90A3E4D6B5C4568DD40C560354DC9
:1010E0006D6805F44041890B3A4D6B5CC568B5FBF2
:1010F000F3F5056130BD29B12E4A526902432D4BEB
:101100005A6104E02B4A526982432A4B5A61704764
:1011100029B1284A92690243264B9A6104E0254A84
:1011200092698243234B9A61704729B1214AD2695F
:101130000243204BDA6104E01E4AD26982431D4B10
:10114000DA61704729B11B4AD2680243194BDA6051
:1011500004E0184AD2688243164BDA60704729B11E
:10116000144A12690243134B1A6104E0114A1269CE
:101170008243104B1A61704712494039086070472A
:101180000F49C86470470B49C87170470948406AE5
:1011900040F0807007494862704701460020054AC8
:1011A00092680A400AB1012000E00020704701491E
:1011B00088727047001002400000FFF8FFFFF6FE43
:1011C000000042428004424200127A0000093D00C1
:1011D00094000020A400002010B50446FE4884427C
:1011E00008D10121C014FFF7ADFF0021E014FFF783
:1011F000A9FFC4E0B4F1804F08D101210846FFF7F0
:10120000AEFF00210120FFF7AAFFB8E0F3488442B7
:1012100008D101210220FFF7A2FF00210220FFF7E1
:101220009EFFACE0EE48844208D101210420FFF784
:1012300096FF00210420FFF792FFA0E0E9488442D6
:1012400008D101210820FFF78AFF00210820FFF7BD
:1012500086FF94E0E448844208D101211020FFF782
:101260007EFF00211020FFF77AFF88E0DF488442EC
:1012700008D101212020FFF772FF00212020FFF775
:101280006EFF7CE0DA48844208D101214014FFF768
:1012900059FF00216014FFF755FF70E0D5488442E4
:1012A00009D10121C804FFF74DFF00214FF40020B0
:1012B000FFF748FF63E0D048844209D101210805C7
:1012C000FFF740FF00214FF48010FFF73BFF56E08F
:1012D000CA48844209D101214805FFF733FF0021A4
:1012E0004FF40010FFF72EFF49E0C548844208D1B3
:1012F00001214020FFF733FF00214020FFF72FFF9F
:101300003DE0C048844208D101218020FFF727FF3B
:1013100000218020FFF723FF31E0BB48844208D141
:1013200001218015FFF71BFF0021A015FFF717FF14
:1013300025E0B648844209D101210804FFF702FFE5
:1013400000214FF48030FFF7FDFE18E0B0488442E2
:1013500009D101214804FFF7F5FE00214FF40030C8
:10136000FFF7F0FE0BE0AB48844208D1012188046E
:10137000FFF7E8FE00214FF48020FFF7E3FE10BDE9
:1013800000220288944B98420ED0994B98420BD081
:10139000B0F1804F08D0914B984205D0904B9842C5
:1013A00002D0904B984204D14FF68F731A404B886D
:1013B0001A438D4B984207D08C4B984204D04FF67D
:1013C000FF431A40CB881A4302808B8883850B88A1
:1013D0000385814B98420BD0854B984208D08B4BAC
:1013E000984205D08A4B984202D08A4B984201D14C
:1013F0000B7A038601238382704770B50024002294
:101400000023058C4FF6FE7635400584028C8388D8
:10141000048B4FF68F752C40B51E2C400D882C4345
:10142000751E2A400D892A434D882A436A4DA842D9
:101430000BD06F4DA84208D0744DA84205D0744D12
:10144000A84202D0734DA84213D14FF6F7752A4037
:101450004D892A434FF6FB752A408D882A434FF663
:10146000FF652B404FF6FF552B408D892B43CD89CF
:101470002B4383800483CD888586028470BD70B53C
:10148000002400220023058C4FF6EF7635400584BA
:10149000028C8388048B48F6FF752C404FF6FF457D
:1014A0002C400D884FF6FF7606EA05252C434FF6B3
:1014B000DF752A400D8906EA05152A434D8806EA9C
:1014C00005152A43444DA84202D0494DA8421DD1DA
:1014D0004FF67F752A404D894FF6FF7606EA0515CF
:1014E0002A434FF6BF752A408D8806EA05152A4320
:1014F0004FF6FF352B404FF2FF752B408D8906EAE2
:1015000085052B43CD8906EA85052B43838004831B
:10151000CD880587028470BD70B5002400220023A9
:10152000058C4FF6FF6635400584028C8388848BDA
:101530004FF68F752C404FF6FC752C400D882C43D0
:101540004FF6FF552A400D894FF6FF7606EA05252E
:101550002A434D8806EA05252A431F4DA84202D09A
:10156000234DA8421DD14FF2FF752A404D894FF6F9
:10157000FF7606EA05252A434FF6FF352A408D8877
:1015800006EA05252A434EF6FF752B404DF6FF75FA
:101590002B408D8906EA05152B43CD8906EA0515F2
:1015A0002B4383808483CD888587028470BD70B58A
:1015B000002200230024058C4EF6FF76354005847A
:1015C000038C8488828B48F6FF752A404FF6FF45CE
:1015D0002A400D8820E00000002C0140000400405B
:1015E00000080040000C00400010004000140040C3
:1015F00000340140004C01400050014000540140C3
:1016000000180040001C0040002000400040014045
:1016100000440140004801404FF6FF7606EA0525E8
:101620002A434DF6FF752B400D8906EA05352B43FD
:101630004D8806EA05352B43FA4DA84202D0FA4DF3
:10164000A84208D14BF6FF752C408D894FF6FF76E6
:1016500006EA85152C4384808283CD88A0F840500B
:10166000038470BD828B4FF2FF331A408283828BDA
:101670004FF6FF7303EA01231A4382837047F0B5E4
:101680000C461546002200210026078C4EF6FF7CF2
:1016900007EA0C070784828B018C4FF6FF7707EA75
:1016A000043640F6FF473A404FF6FF7707EA052732
:1016B0003A434FF6FF7707EA03373A43D94FB84228
:1016C0000ED0D94FB8420BD0B0F1804F08D0D74FD1
:1016D000B84205D0D64FB84202D0D64FB84206D154
:1016E0004DF6FF77394046F48057394305E047F619
:1016F000FF57394044F48057394382830184F0BD59
:10170000828B4FF6F3731A408283828B0A43828363
:101710007047F0B50C461546002200210026078CC4
:101720004FF6FF6C07EA0C070784828B018C4FF69B
:10173000FF7707EA04264FF60C773A404FF6FF771B
:1017400007EA03172F433A43B64FB8420ED0B64FBD
:10175000B8420BD0B0F1804F08D0B44FB84205D09A
:10176000B34FB84202D0B34FB84206D14FF6FF573D
:10177000394046F48077394305E04FF2FF5739404E
:1017800044F48077394382830184F0BD028B4FF2A9
:10179000FF331A400283028B4FF6FF7303EA0123E3
:1017A0001A4302837047F0B50C461546002200210B
:1017B0000026078C4FF6EF7C07EA0C070784028BA4
:1017C000018C4FF6FF7707EA041640F6FF473A40D0
:1017D0004FF6FF7707EA03373A434FF6FF7707EAFA
:1017E00005273A438F4FB8420ED08F4FB8420BD0E7
:1017F000B0F1804F08D08D4FB84205D08C4FB84221
:1018000002D08C4FB84206D14FF6DF77394046F010
:101810001007394305E04FF65F77394044F0100771
:10182000394302830184F0BD028B4FF6F3731A40F3
:101830000283028B0A4302837047F0B50C461546BB
:1018400000220021068C4FF6FE773E400684028B74
:10185000018C4FF60C7632407E1C06EA03162E43AE
:101860003243704EB0420ED06F4EB0420BD0B0F14A
:10187000804F08D06D4EB04205D06D4EB04202D0C0
:101880006C4EB04206D14FF6FD76314044F0010671
:10189000314305E04FF6F576314044F0010631431F
:1018A00002830184F0BD70B505460C465D48854253
:1018B0000ED05D4885420BD0B5F1804F08D05B4813
:1018C000854205D05A48854202D05A48854200D107
:1018D00000E000BF208850B92389A288618828468B
:1018E000FFF7ABFFE1882846FFF79EFF25E0208841
:1018F00004280AD12389A28861882846FFF753FF6C
:10190000E1882846FFF742FF17E0208808280AD11F
:101910002389A28861882846FFF7FBFEE1882846D4
:10192000FFF7EEFE09E02389A28861882846FFF7C9
:10193000A6FEE1882846FFF795FE70BD2DE9F0412F
:1019400005460C4600260127608808B9022600E0FB
:101950000026A088012801D1022700E00127208865
:10196000A0B92389A28861882846FFF766FFE1882D
:101970002846FFF759FF23893A4631462846FFF7A4
:1019800012FFE1882846FFF701FF13E02389A288B0
:1019900061882846FFF707FFE1882846FFF7F6FE33
:1019A00023893A4631462846FFF747FFE188284613
:1019B000FFF73AFFBDE8F0810A884B881A438B880D
:1019C0001A43CB881A430B891A434B891A438B89D4
:1019D0001A43A0F8442070474FF6FF718180002120
:1019E0000180C180418001727047002101804180E7
:1019F0008180C180018141818181C1817047002145
:101A000001804180012181800021C18001817047D6
:101A10000021018041808180C180018141818181DB
:101A200070470000002C01400034014000040040D9
:101A300000080040000C004021B1028842F0010281
:101A4000028004E002884FF6FE731A40028070475D
:101A500031B1B0F8442042F40042A0F8442005E03F
:101A6000B0F84420C2F30E02A0F8442070471AB127
:101A700083890B43838102E083898B438381704791
:101A80008182704741EA0203A0F8483070471AB1DA
:101A900083890B43838102E083898B438381704771
:101AA00001894FF6F8721140018170470A46002102
:101AB00001894FF68F73194011430181704730B58A
:101AC00004460D4629462046FFF7F0FF208940F0E6
:101AD0000700208130BD2DE9F04104460D46164631
:101AE0001F46602D06D13B46012231462046FFF7B6
:101AF0005AFE05E03B46012231462046FFF79DFE97
:101B000029462046FFF7D2FF208940F007002081B8
:101B1000BDE8F08130B50C4600210189C9B24FF60D
:101B2000FF7505EA0325154325432943018130BD8F
:101B30002DE9F04105460E461746984600244346D7
:101B40003A4631462846FFF7E5FF2C894FF6F870F4
:101B5000044044F007044FF68F70044044F07004D2
:101B60002C81BDE8F081F0B504460D4616461F46AF
:101B70003B46324629462046FFF7CCFF208940F4F9
:101B800080402081F0BD0185828270470A46002195
:101B900001884FF68F731940114301807047F0B5EB
:101BA0000C4615461E460021002200230189028BA7
:101BB000038C4FF6F877394021434FF6FC473A4003
:101BC00040F201173A434FF6DD773B404FF6FF777F
:101BD00007EA06172F433B43018102830384F0BDCC
:101BE0000A460021018B4FF68F7319401143018380
:101BF00070470A460021018B48F6FF7319404FF6E3
:101C0000FF7303EA02231943018370470A46002148
:101C1000818B4FF68F7319401143818370470A46B9
:101C20000021818B48F6FF7319404FF6FF7303EADA
:101C3000022319438183704721B1028842F0800258
:101C4000028004E002884FF67F731A4002807047DA
:101C500021B1828842F00402828004E082884FF63B
:101C6000FB731A408280704721B1828842F00802DB
:101C7000828004E082884FF6F7731A4082807047B2
:101C800021B1828842F00102828004E082884FF60E
:101C9000FE731A40828070470A460021018B4FF67E
:101CA000F77319401143018370470A460021018BE5
:101CB0004FF2FF7319404FF6FF7303EA02231943F3
:101CC000018370470A460021818B4FF6F773194054
:101CD0001143818370470A460021818B4FF2FF73C5
:101CE00019404FF6FF7303EA0223194381837047BB
:101CF0000A460021018B4FF6FB7319401143018303
:101D000070470A460021018B4FF6FF3319404FF60A
:101D1000FF7303EA02231943018370470A46002137
:101D2000818B4FF6FB7319401143818370470A463C
:101D30000021818B4FF6FF3319404FF6FF7303EA02
:101D400002231943818370470A460021018B4FF615
:101D50007F7319401143018370470A460021018BAC
:101D6000C1F30E014FF6FF7303EA02231943018307
:101D700070470A460021818B4FF67F73194011434B
:101D8000818370470A460021818BC1F30E014FF613
:101D9000FF7303EA02231943818370470A46002137
:101DA000018C4FF6FD7319401143018470470A46B8
:101DB0000021018C4FF6F7731940114301847047DD
:101DC0000A460021018C4FF6DF7319404FF6FF736E
:101DD00003EA02131943018470470A460021018C6B
:101DE0004FF67F7319404FF6FF7303EA021319434E
:101DF000018470470A460021018C4FF6FF531940B9
:101E00004FF6FF7303EA02231943018470470A4621
:101E10000021018C4FF2FF7319404FF6FF7303EA64
:101E200002231943018470470A460021018C4DF6B4
:101E3000FF7319404FF6FF7303EA0233194301841D
:101E4000704730B5002301248C40A3B2048C9C431E
:101E50000484048C02FA01F5ADB22C43048430BD35
:101E600030B5002304248C40A3B2048C9C4304842A
:101E7000048C02FA01F5ADB22C43048430BD70B578
:101E80000346002000241846183001258D40ACB2CE
:101E90001D8CA5431D8409B1082909D100EB6100FF
:101EA000056825F0700505600568154305600EE0BE
:101EB0000D1FC5F34E052844056825F4E04505606F
:101EC00005684FF6FF7606EA02263543056070BDC9
:101ED00021B1028842F00202028004E002884FF63B
:101EE000FD731A400280704721B1028842F004025B
:101EF000028004E002884FF6FB731A4002807047AC
:101F000021B1828842F08002828004E082884FF60C
:101F10007F731A408280704702884FF6F7731A4029
:101F2000028002880A430280704782884FF68F73CE
:101F30001A40828082880A438280704702894FF665
:101F4000F8731A40028102890A43028170470289AC
:101F50004FF67F731A40028102890A43028170475B
:101F600081847047818570478186704701877047FB
:101F700081877047A0F84010704702884FF6FF43F2
:101F80001A40028002880A43028070470146888E08
:101F900070470146088F70470146888F7047014699
:101FA000B1F8400070470146888C70470146088DA3
:101FB000704702460020138A0B400BB1012000E05D
:101FC00000207047CA430282704730B502460020A5
:101FD00000230024158A05EA0103958905EA010416
:101FE00013B10CB1012000E0002030BDCA430282D1
:101FF0007047000010B50446FB48844209D1012116
:102000008803FFF79FF800214FF48040FFF79AF80C
:1020100032E0F648844209D101214804FFF79FF8D5
:1020200000214FF40030FFF79AF825E0F048844291
:1020300009D101218804FFF792F800214FF4802094
:10204000FFF78DF818E0EB48844209D10121C8045C
:10205000FFF785F800214FF40020FFF780F80BE030
:10206000E548844208D101210805FFF778F80021EE
:102070004FF48010FFF773F810BD2DE9F04786B0DC
:1020800005460E460024A24600BFA1460027B0899F
:1020900000B100BF2F462C8A4CF6FF700440F08838
:1020A00004432C82AC894EF6F3100440B088318989
:1020B0000843718908430443AC81AC8A4FF6FF4062
:1020C0000440B0890443AC8201A8FEF7B4FFC648BF
:1020D000874202D1DDF810A001E0DDF80CA0A8894C
:1020E00000F4004040B10AEBCA0000EB0A1031686E
:1020F0004900B0FBF1F807E00AEBCA0000EB0A1058
:1021000031688900B0FBF1F86420B8FBF0F00401FD
:102110002009642101FB1089A88900F4004040B126
:10212000322000EBC900B0FBF1F000F007000443DF
:1021300008E0322000EB09106421B0FBF1F000F060
:102140000F0004432C8106B0BDE8F0874FF4165110
:10215000016000218180C18001810C214181002129
:102160008181704710B502460020108A4FF2FF03AC
:1021700018400B884C8823438C882343CC88234306
:102180001843108210BD0021018041808180C180F0
:10219000704721B1828942F40052828104E0828931
:1021A0004DF6FF731A4082817047F0B50346002454
:1021B00000260025002040F66A17B94200D100BF72
:1021C0001846C1F3421401F01F06012707FA06F56D
:1021D000012C01D10C3004E0022C01D1103000E0C0
:1021E00014301AB107682F43076002E00768AF4355
:1021F0000760F0BD1AB1838A0B43838202E0838AB1
:102200008B4383827047028A4FF6F0731A40028232
:10221000028A0A430282704782894FF2FF731A4092
:10222000828182890A438281704721B1828942F08A
:102230000202828104E082894FF6FD731A40828196
:102240007047028A4FF6DF731A400282028A0A43FD
:102250000282704721B1028A42F48042028204E085
:10226000028A4BF6FF731A4002827047C1F30802DC
:102270008280704701468888C0F3080070478189D2
:1022800041F0010181817047028BD2B20283028B3F
:1022900042EA012202837047028B02F47F420283EA
:1022A000028B0A430283704721B1828A42F02002E6
:1022B000828204E0828A4FF6DF731A40828270477E
:1022C00021B1828A42F01002828204E0828A4FF6B3
:1022D000EF731A408282704721B1828A42F008026D
:1022E000828204E0828A4FF6F7731A408282704736
:1022F00021B1828942F40042828103E08289C2F3E3
:102300000E028281704721B1828A42F40062828289
:1023100004E0828A4FF2FF731A4082827047828AF9
:102320004FF6FB731A408282828A0A438282704788
:1023300021B1828A42F00202828204E0828A4FF650
:10234000FD731A408282704702460020B1F5007F7B
:1023500000D100BF13880B400BB1012000E000202A
:10236000704701F40072B2F5007F00D100BFCA438C
:102370000280704770B5024600240023002500202B
:1023800040F66A16B14200D100BFC1F3421501F018
:102390001F03012606FA03F3012D02D1968933406B
:1023A00006E0022D02D1168A334001E0968A3340BE
:1023B0000C12012606FA04F41688344013B10CB14D
:1023C000012000E0002070BD10B50022002340F67F
:1023D0006A14A14200D100BF0A1201249440A3B2A2
:1023E000DC43048010BD0000003801400044004080
:1023F00000480040004C00400050004010B56FF015
:102400000400FEF76CF82E4800682E49B0FBF1F08E
:102410002D4908700846007800EB4001C1EBC01060
:102420004FF6FF7101EAC0002849088010BD01463F
:10243000254A12784A434FF0E0235A6100229A61FC
:102440001A46126942F001021A6100BF4FF0E02201
:10245000106900F001021AB100F48032002AF5D0B0
:102460004FF0E022126922F001024FF0E0231A61DE
:1024700000229A6170470146144A12884A434FF07D
:10248000E0235A6100229A611A46126942F0010261
:102490001A6100BF4FF0E022106900F001021AB18A
:1024A00000F48032002AF5D04FF0E022126922F0C9
:1024B00001024FF0E0231A6100229A617047000088
:1024C0008000002000127A00A8000020AA0000204E
:1024D000014600BF704700BF784A128802F04002F0
:1024E000002AF9D0C2B2754B1B1D1A80704710B577
:1024F00088B00446012144F20400FEF709FE0121E0
:102500006F48FEF712FE4FF40170ADF81C00032077
:102510008DF81E0018208DF81F0007A96948FEF7E6
:102520003BFB4FF48160ADF81C0004208DF81F00C8
:1025300007A96448FEF730FB25208DF8080003202A
:102540008DF809008DF80A0001208DF80B0002A813
:10255000FDF77BFF26208DF8040003208DF8050091
:102560008DF8060001208DF8070001A8FDF76DFF2A
:1025700003940020ADF81000ADF81200ADF814007F
:10258000ADF818000C20ADF8160003A94B48FFF772
:1025900074FD03A94C48FFF770FD012240F225515C
:1025A0004648FFF702FE012240F225514648FFF758
:1025B000FCFD01214148FFF7ECFD01214248FFF7F6
:1025C000E8FD08B010BD10B540F225513B48FFF7BB
:1025D000D1FE10B33948FFF74DFEC4B23B48008826
:1025E00000F40040C8B93948008800F4804060B168
:1025F0000A2C03D000203549088020E033480088A9
:1026000040F400403149088019E00D2C06D12F48D4
:10261000008840F480402D49088010E02B48008855
:10262000C0F30D002A490C5428480088401C274953
:10263000088008460088C72801DD0020088010BDFA
:1026400010B540F225512048FFF794FE10B31E4804
:10265000FFF710FEC4B21F48008800F40040C8B95C
:102660001C48008800F4804060B10A2C03D0002090
:102670001849088020E01748008840F400401549B8
:10268000088019E00D2C06D11248008840F48040E3
:102690001049088010E00F480088C0F30D000E4973
:1026A0000C540C480088401C0A49088008460088E1
:1026B000C72801DD0020088010BD0000003801405F
:1026C000040002000008014000440040B000002067
:1026D00028030020B2000020F003002070B504465B
:1026E0000E4626B10221F748FEF703FB03E0022164
:1026F000F448FEF700FB1021F348FEF7FCFA002532
:1027000017E02021F048FEF7F6FA04F0800020B12F
:102710000121ED48FEF7EDFA03E00121EA48FEF75A
:10272000EAFA2021E848FEF7E4FA6006040E681C85
:10273000C5B2082DE5DB1021E348FEF7DAFA0221E5
:10274000E048FEF7D6FA70BD70B504460E4626B1D5
:102750000221DC48FEF7CDFA03E00221D948FEF75A
:10276000CAFA1021D848FEF7C6FA002517E0202142
:10277000D548FEF7C0FA04F0800020B10121D2480C
:10278000FEF7B9FA03E00121CF48FEF7B2FA2021A3
:10279000CD48FEF7AEFA6006040E681CC5B2082DDF
:1027A000E5DB1021C848FEF7A4FA0221C548FEF770
:1027B000A0FA70BD70B504460D4605F1B001C8B26F
:1027C0000021FFF78BFF102141EA14100021FFF7D1
:1027D00085FF04F00F0141F001000021FFF77EFFAB
:1027E00070BD10B500218D20FFF778FF0021142067
:1027F000FFF774FF0021AF20FFF770FF10BD10B589
:1028000000218D20FFF76AFF00211020FFF766FFEF
:102810000021AE20FFF762FF10BD70B5002419E063
:1028200004F1B001C8B20021FFF758FF00210846AB
:10283000FFF754FF00211020FFF750FF002505E0AF
:1028400001210020FFF74AFF681CC5B2802DF7DB8D
:10285000601CC4B2082CE3DB70BD10B54FF480617E
:102860009A4801F040FB10BDF0B5144600267F28C1
:1028700001DC3F2900DDF0BD0B46CF1701EB577798
:10288000FF10C7F10707FAB2CF1701EB5777FF1018
:10289000A1EBC707FDB2C5F107070123BB40DEB2BC
:1028A0004CB18A4B03EBC0039B5C3343874F07EB70
:1028B000C007BB5408E0854B03EBC0039B5CB343EC
:1028C000824F07EBC007BB5400BFD4E770B50024AC
:1028D0001CE004F1B001C8B20021FFF7FFFE0021A7
:1028E0000846FFF7FBFE00211020FFF7F7FE00254A
:1028F00008E0764901EBC501085D0121FFF7EEFE16
:10290000681CC5B2802DF4DB601CC4B2082CE0DB6F
:1029100070BDF0B5034600240020A2F12005ECB202
:102920007F2B02DD00238D1CE9B2072900DD072182
:1029300000200CE004EB4405654E06EB45052D5CDC
:102940001E18624F07EBC6067554451CE8B20628F0
:10295000F0DBF0BD10B50246012000E050430B1E35
:10296000A1F10104E1B2F9D110BD2DE9FF4F0746F5
:1029700091461D460D9E4FF0000A002433E0281BAF
:10298000401EC1B20A20FFF7E5FFB9FBF0F00A21B3
:10299000B0FBF1F201FB1208BAF1000F13D1681E6F
:1029A000A04210DDB8F1000F0BD1B34606EBDB718E
:1029B000491001FB0471C8B220220199FFF7A9FF59
:1029C0000FE04FF0010AB34606EBDB71491001FB43
:1029D0000471C8B208F13001CAB20199FFF799FF3A
:1029E00000BF601CC4B2AC42C9DBBDE8FF8FF0B5CC
:1029F00004460F46154600260DE0AA5D39462046DE
:102A0000FFF787FFA01DC4B2782C02DD0024781CDC
:102A1000C7B2701CC6B2A85D0028EED1F0BD2DE98A
:102A2000F04180460E461546002731464046FFF7E6
:102A3000C1FE00240AE0274A02EB8511085D01214E
:102A4000FFF74CFE781CC7B2601CC4B2102CF2DB3E
:102A5000701CC1B24046FFF7ADFE00240CE06900D7
:102A6000491C1C4A02EB4111085D0121FFF736FEAB
:102A7000781CC7B2601CC4B2102CF0DBBDE8F0813A
:102A80002DE9F05F06460F4690461C46DDF828A06B
:102A90004FF0000BE11704EB5171C910A4EBC10119
:102AA00031B92046E11704EB5171C1F3C70506E0C7
:102AB0002046E11704EB5171C910491CCDB23D46C7
:102AC00020E00000000C014000080140B804002094
:102AD000205A0008B400002029463046FFF76AFE5D
:102AE000B1460BE059460BF1010B1AF80100012128
:102AF000FFF7F4FD09F1010000F0FF09C145F1DB2A
:102B0000681CC5B2A542E7DBBDE8F09F08B501210E
:102B10000420FEF7FDFA3120ADF8000010208DF8FA
:102B2000030003208DF8020069465448FEF734F88C
:102B300031215248FEF7DDF801210820FEF7E8FABE
:102B40000320ADF8000010208DF8030003208DF85D
:102B5000020069464A48FEF71FF803214848FEF77D
:102B6000C8F801214648FEF7C4F86420FFF783FC4B
:102B700001214348FEF7BFF8C820FFF77CFC012184
:102B80003F48FEF7B6F80021AE20FFF7A7FD002171
:102B90000846FFF7A3FD00211020FFF79FFD00214D
:102BA0004020FFF79BFD00218120FFF797FD0021CA
:102BB000CF20FFF793FD0021A120FFF78FFD00211B
:102BC000C820FFF78BFD0021A620FFF787FD00211D
:102BD000A820FFF783FD00213F20FFF77FFD0021A4
:102BE000D320FFF77BFD00210846FFF777FD00218A
:102BF000D520FFF773FD00218020FFF76FFD002136
:102C0000D920FFF76BFD0021F120FFF767FD0021C0
:102C1000DA20FFF763FD00211220FFF75FFD00219E
:102C2000DB20FFF75BFD00214020FFF757FD00216F
:102C30002020FFF753FD00210220FFF74FFD002168
:102C40008D20FFF74BFD00211420FFF747FD0021E9
:102C5000A420FFF743FD0021A620FFF73FFD002140
:102C6000AF20FFF73BFD0021AF20FFF737FDFFF757
:102C7000D4FD00210846FFF79DFD08BD0008014076
:102C8000000C01400146FE4800688068081A704741
:102C900010B5002300BF04E011F8014B00F8014B10
:102CA0005B1C9342F8DB10BD0146F5480068806864
:102CB0000A1A002A03DD082A01DA012070470020E1
:102CC000FCE70FB42DE9F04389B005460026B14674
:102CD000142103A801F007F9002000900190029050
:102CE0002846FFF7E1FF20B909B0BDE8F0035DF821
:102CF00014FB12A80890E3A1119801F00BF9044607
:102D0000002C3FD01198201AC2B203A81199FFF7E6
:102D1000BFFF641C2078642802D0662822D108E016
:102D2000089840C808903246D7A1684601F0C0FD17
:102D300019E00898C01D20F007000890D0E9002194
:102D4000089F08371046089701F0CCFB814648469B
:102D500001F09DFB07463A460B46CCA1684601F0C0
:102D6000A7FD00E000BF00BF694603A801F0C6F858
:102D70002846FFF787FFC7B203AA39460A20FFF7A4
:102D800036FE08E02846FFF77DFFC7B239460A2025
:102D9000119AFFF72CFE0020089000BFA4E770B541
:102DA00005460C46B64800688068B5490968496818
:102DB0000844A84214D1B7480078052810D17CB146
:102DC000AF4800680EC8B44800F047FDB34804603F
:102DD0000020AB49096888600120A949096848605A
:102DE00070BD70B505460C46072C00DD0724ACA26B
:102DF00021462846FFF7FBFD70BD2DE9F04F87B057
:102E000005468A4616461F4600243146284601F0EC
:102E1000EFF88046002101F081FB51D03146284671
:102E200001F0E6F881465146384601F0DEF8834667
:102E3000494601F012F906902846069901F0DBF8A0
:102E40008146514601F0D4F805903146284601F0FC
:102E5000CCF8834601F0D5FAB0F1000901DB484611
:102E600001E0C9F10000401C00F0FF08002424E04C
:102E7000204601F0B8FA2946019001F064F802906A
:102E8000069901F0B8F88346059901F05CF881468F
:102E900001F0D0FAC0B20490204601F0A4FA8346B3
:102EA000294601F050F8814601F0C4FAC0B201226F
:102EB00003900499FFF7D8FC641C4445D8DB2AE052
:102EC000002416E0204601F08EFA5146069001F0EB
:102ED0003AF8834601F0AEFA00F0FF08284601F008
:102EE000A9FA00F0FF09012241464846FFF7BCFC61
:102EF000641C5146384601F078F883464FF07E5105
:102F000001F021F88046204601F06DFA81464146E5
:102F100001F004FBD6D307B0BDE8F08F10B504462E
:102F2000604800F070FC5B49087008460078022891
:102F30002BD1534800684068401C514909684860DB
:102F4000072C19DD4E4800684068072850DD07202F
:102F50004B49096848604A4800688068401C4849F5
:102F600009688860464800688168E01F81423FDD4B
:102F70004349096888603BE0414800684068A042D6
:102F800036DD3F480068446032E04248007801285E
:102F90001CD13B4800684068401E394909684860B8
:102FA000374800684068012822DA0120344909685E
:102FB0004860334800688068002819DD30480068A0
:102FC0008068401E2E490968886011E03148007809
:102FD00006280DD131480068406848B12F48006884
:102FE00040682E490860264801682B4800F057FCCD
:102FF00010BD2DE9F047054600BF00BF2846FFF78A
:103000008DFF26490968086800F096FF0446601E97
:1030100000EB40007F21A1EB400606EBD671481083
:1030200001F0E1F980462049404600F0DEFF064607
:103030001E4B324619460020FFF7DFFE1A49404674
:1030400000F0D3FF074601F0F5F9C6B218A200213F
:103050003046FFF7CCFC04EB4401480001F0C3F913
:103060008146414600F06FFF074601F0E3F9C6B222
:103070000BA200213046FFF7BAFC40461AE00000E0
:103080008C0200202500000025640000252E3266F9
:10309000000000007C020020E808002090020020D0
:1030A0003E000000B80800200000C0400000704250
:1030B0003C00000001F0BEF9C6B2F94800680021EA
:1030C00002683046FFF793FC04EB4401480001F02E
:1030D0008AF98146414600F036FF0746F14900F083
:1030E00032FF0646F04B4FF086421946FFF785FE49
:1030F000EE4B4FF0824200211046FFF77EFEEC4877
:10310000006801790020FFF76CFEBDE8F08770B51C
:103110000520FFF76EFFE748006801F0B8F90446A4
:1031200022460B46E4A10120FFF7CBFDE4A10220DB
:10313000FFF7C7FDE6490220FFF731FEE5A10320B6
:10314000FFF7BFFDE6490320FFF729FEE5A10420B4
:10315000FFF7B7FDE6490420FFF721FEE548E6A1A9
:1031600002680520FFF7ADFD70BD2DE9FF4704465D
:103170000D4617461E464FF00008C146CC48006871
:103180008068CB49096849680844A04227D1DE48D5
:103190000078052823D10095BDF80000ADF80400A3
:1031A000BDF80200ADF806000097BDF80000ADF8CC
:1031B0000800BDF80200ADF80A000096BDF8000056
:1031C000ADF80C00BDF80200ADF80E000C2201A90C
:1031D000CE4800F0F4FD012004B0BDE8F0870020E7
:1031E000FAE770B505460C461646B1480068806897
:1031F000AF49096849680844A84211D1C24800781B
:10320000042804D13146206800F09DFE2060BE48AD
:103210000078032804D13146206800F0E6FE2060E3
:1032200070BDA34A12689268A14B1B685B681A4480
:10323000824205D1B44A1278042A01D100220A80C0
:10324000704770B50620FFF7D4FEB149086801F059
:103250001EF9044622460B46AEA10120FFF731FDC0
:10326000B04AAB490120FFF7BCFFA949486801F00B
:103270000EF9044622460B46ABA10220FFF721FDC2
:10328000A84AA349091D0220FFF7ABFFA04988689F
:1032900001F0FDF8044622460B46A7A10320FFF7E4
:1032A00010FDA04A9A4908310320FFF79AFFA6486B
:1032B000A6A102680420FFF704FDA8490420FFF737
:1032C000B0FFA748006801F0E2F8044622460B462A
:1032D000A4A10520FFF7F5FC4FF07E52A049052080
:1032E000FFF77FFF4FF07E519D48006801F020F905
:1032F00004D24FF07E509A49086008E000219848B7
:10330000006801F00BF902D200209549086099A1EC
:103310000620FFF7D6FC7E488368426801680620D5
:10332000FFF723FF18B196490620FFF738FD70BD5F
:1033300010B50120FFF75DFE92A10120FFF7C1FC4F
:1033400010BD70B50120FFF754FE9148006801F0F0
:103350009EF8044622460B468EA10120FFF7B1FCE1
:103360008F4A8B490120FFF73CFF8948006801F034
:103370008EF804464FF066328A4B01F09BF803D278
:1033800089488349086008E000218148006801F00D
:10339000C5F802D200207E49086070BD70B50520D6
:1033A000FFF727FE8149086801F071F804462246BC
:1033B0000B467FA10120FFF784FC5A4A7B4901207C
:1033C000FFF70FFF7949486801F061F8044622468B
:1033D0000B467AA10220FFF774FC524A7349091D7B
:1033E0000220FFF7FEFE7149886801F050F804469C
:1033F00022460B4674A10320FFF763FC494A6B4940
:1034000008310320FFF7EDFE4F4850A10268042069
:10341000FFF757FC51490420FFF703FF50480068AD
:1034200001F035F8044622460B464EA10520FFF771
:1034300048FC4FF07E524A490520FFF7D2FE4FF07C
:103440007E514748006801F073F804D24FF07E5077
:103450004349086008E000214148006801F05EF837
:1034600002D200203E49086070BD10B5FFF7F5F9A3
:103470000B49096888688047FFF728FA10BD10B526
:103480000446FFF743FBFFF7C8F900205149C86223
:103490008862401E504988670148046010BD0000E2
:1034A000900200200000C0400000704200007C42FA
:1034B0008C020020000000204144433A25660000B1
:1034C000506F736974696F6E5F504944000000006B
:1034D000A002002053706565645F504944000000FD
:1034E000C4020020466F6C6C6F7744617461000009
:1034F000B80200201003002053706565645F436FBD
:1035000064653A25640000007C02002000FC01088C
:10351000D00200205049445F4B703A2020202025E3
:10352000660000000AD7233C5049445F4B643A20B0
:1035300020202566000000005049445F4B693A2076
:103540002020202566000000080300206E756D5FB6
:10355000636F64653A202025640000002408004061
:103560007402002053746172745F666C616720207E
:103570002566000053617665546F466C6173680080
:10358000AC020020536176652020204F6B000000C4
:10359000780200204D6178646174613A20256600EC
:1035A000CDCCCC3D66660A4033335340EC0200205C
:1035B00053706565645F503A256600005370656519
:1035C000645F643A2566000053706565645F493A3C
:1035D00025660000B8080020E808002010B5044661
:1035E0002146694800F0F0F810BD2DE9F05F05466E
:1035F0000C4616461F46204600F0FEFE8046A819DF
:1036000000F0F1FE8146204600F0F6FE8246284694
:1036100000F0F2FE834643464A465146FFF7EDFB73
:10362000E01900F0E0FE8046284600F0E5FE814605
:10363000204600F0E1FE8246284600F0DDFE83468B
:1036400043464A465146FFF7D8FBE01900F0CBFE4F
:103650008046A81900F0C7FE8146E01900F0C3FEBD
:103660008246284600F0C8FE834643464A465146F5
:10367000FFF7C3FBE01900F0B6FE8046A81900F082
:10368000B2FE8146204600F0B7FE8246A81900F03F
:10369000AAFE834643464A465146FFF7AEFBBDE8C5
:1036A000F09F2DE9F74F8EB00C46914600200C900C
:1036B0000C9061E00C9800F0EAFE0746334A344B68
:1036C00000F0B0FD0022334BCDE9000100F01CFEFC
:1036D000054602F0A9F8CDE90401484600F0D7FEFE
:1036E000CDE90201DDE9042300F09CFDCDE90801EC
:1036F000204600F0CCFECDE90601DDE9082300F00C
:10370000EAFC824600F0AAFEC0B20B900E9800F0D0
:10371000BEFECDE906010C9800F0B9FE82461B4AB8
:103720001B4B00F07FFD074600221A4B00F0ECFD1A
:10373000CDE9000102F024F9CDE90201484600F08C
:10374000A6FE0546DDE9022300F06CFDCDE904018B
:10375000DDE9062300F0BFFCCDE9080100F07EFEA4
:10376000C0B201220A900B99FFF77EF84FF07E510C
:103770000C9800F0E8FB0C9007490C9800F0CEFE86
:1037800098D311B0BDE8F08FB80800201F85EB5129
:10379000B81E0940008066400000B4430FB40A21FF
:1037A000DDE90A02904202D1012004B070470A9874
:1037B000401C90FBF1F201FB12000B9A904201D1E8
:1037C0000020F2E70220F0E770B588B004460D460D
:1037D0000A26202204F11001684600F06BFB94E8F1
:1037E0000F00FFF7DBFF10B9002008B070BDA06A22
:1037F00044F82050A06A401C90FBF6F106FB110033
:10380000A0620120F1E770B588B0044600250026CB
:10381000202204F11001684600F04CFB94E80F00F0
:10382000FFF7BCFF012802D1002008B070BD0A25B7
:10383000E06A54F82060E06A401C90FBF5F105FB5B
:103840001100E0623046F0E70FB41E98401C10B93A
:10385000012004B070470020FBE71FB504460A2191
:10386000A06F092819DAA06F401CA0670198A26F09
:1038700002EB420244F822000398A26F02EB4202DC
:1038800004EB820290600298A26F02EB420204EB0A
:1038900082025060012004B010BD0020FBE730B56B
:1038A0009BB004460D466C2204F11001684600F0FE
:1038B00001FB94E80F00FFF7C7FFC0B9A06F00EB52
:1038C000400054F820002860A06F00EB400004EB9B
:1038D000800040686860A16F481EA06701EB41004E
:1038E00004EB80008068A86001201BB030BD002080
:1038F000FBE700002DE9F05F04460D461646314611
:10390000284600F072FBE0606349E06800F010FEBA
:1039100004D36249E06800F001FE1BD26169A0682F
:1039200000F069FB8146D4E9030100F05EFB8346A9
:10393000616800F060FB8046E168206800F05BFB96
:103940008246414600F0FFFA0746494600F0FBFA7E
:10395000A06101E00020A061E06820615049E068BA
:1039600000F0DCFD0AD24F49E06800F0E1FD05D22D
:10397000E168606900F0E7FA606101E000206061E1
:103980000021A06900F0CAFD0CD20020A16900F05E
:103990002CFBA06101204449086000204349C1F884
:1039A000940106E000204049086001203F49C1F829
:1039B00094013F49A06900F0BBFD01D83C48A061DB
:1039C0003C49A06900F0AAFD01D83A48A061A0696D
:1039D000BDE8F09F2DE9F05F04460D4616463146DE
:1039E000284600F002FBE0603349E06800F0A0FDEB
:1039F00004D33249E06800F091FD1BD26169A068F0
:103A000000F0F9FA8146D4E9030100F0EEFA8346AA
:103A1000616800F0F0FA8046E168206800F0EBFA97
:103A20008246414600F08FFA0746494600F08BFA7D
:103A3000A06101E00020A0612149E06800F06EFD76
:103A40000AD22049E06800F073FD05D2E1686069A0
:103A500000F079FA606101E000206061E0682061B7
:103A60000021A06900F05AFD04D20020A16900F0F5
:103A7000BCFAA0610E49A06900F05AFD01D80C48BB
:103A8000A0611149A06900F049FD01D80948A06171
:103A9000A069BDE8F09F000000004040000040C069
:103AA0000000F0410000F0C1A0012142008021424D
:103AB000000061440000E14300002041000020C1FB
:103AC00000007042000070C20000EB432DE9F84F87
:103AD00082460C464FF0000BD946504600F0D7FC0A
:103AE00005464FF06632924B00F0E4FC01D2DFF85D
:103AF00044A24FF08B41504600F07DFA009000F058
:103B0000C6FC07464FF06632894B00F0FDFB0546C8
:103B100000F0E8FC81460021484600F009FD0DD286
:103B20008549204600F067FA0546494600F095FAB7
:103B30008346584600F065FCBDE8F88F0020FBE79F
:103B40007FB505460C4601210846FDF7EEFAADF8B3
:103B50000850ADF804400020ADF80A00ADF80600AA
:103B600001A94FF08040FDF70BFC012211469007A0
:103B7000FDF77DFF1C208DF8000002208DF801006C
:103B800003208DF8020001208DF803006846FCF741
:103B90005CFC01218807FDF74FFF7FBD00B587B0B2
:103BA00001210420FDF7C1FA01210820FDF7B0FA38
:103BB000C020ADF8000004208DF8030069465F487E
:103BC000FCF7EAFF04A8FDF707FF0020ADF810009E
:103BD0004FF6FF70ADF814000020ADF81600ADF8F8
:103BE000120004A95648FDF7CBFB00231A46032117
:103BF0005348FDF7D4FF01A8FDF701FF0A20ADF8F7
:103C00000C0001A94E48FDF74EFE01214C48FEF77D
:103C1000D9F9012211464A48FDF729FF00214848F9
:103C2000FEF79EF901214648FDF706FF07B000BDEB
:103C30000146042904D1424A2432128810B201E01C
:103C4000002000BF00BF70473D48103000883C484E
:103C50001030008820F00100394910310880704789
:103C600070B501218807FEF7B0F900285FD035480C
:103C70000068354908600420FFF7DAFF3149086021
:103C80000846006830490968401A3049086008460B
:103C90000068002803DA08460068404208600021F6
:103CA0002B48006800F03AFC39D02A480068401CD4
:103CB000284908602548006800F095FB0646324612
:103CC000254801682548FFF785FE054600F0B2FB50
:103CD00084B221462248FEF749F91E4800680A28A6
:103CE00015DB1848006800F07EFB05461D4801689A
:103CF0001D480068FFF7EAFE064600F074FB044624
:103D00002A4621461948FFF7F5FD13490860114876
:103D100000680A2807DB00200E49086003E0002144
:103D20000F48FEF723F901218807FEF75FF970BD00
:103D300066660A40333353400000FA44000C0140E9
:103D400000080040080300200C030020100300209E
:103D5000740200201403002018030020EC0200204D
:103D6000000400400000002078020020D002002063
:103D70000146088870472DE9F04105460E46174672
:103D8000002407E036F814102846FCF72EFDAD1C81
:103D9000601C84B2BC42F5DBBDE8F08130B503465F
:103DA0000C461546002207E01846FFF7E1FF24F80D
:103DB00012009B1C501C82B2AA42F5DB30BD2DE9DB
:103DC000F05F80468A461746B8F1006F02D3374845
:103DD000804501D3BDE8F09FFCF7BFFBA8F1006B65
:103DE0004FEA9B25CBF34809C9F50074A74200DCD4
:103DF0003C464DE04FF0006101EB85208A142C49D0
:103E0000FFF7CCFF00260BE009EB0600284931F84C
:103E100010004FF6FF71884200D003E0701C86B29C
:103E2000A642F1DB00BFA6421BDA4FF0006101EBB6
:103E30008520FCF7D7FB002608E03AF8160006EBD1
:103E400009011B4A22F81100701C86B2A642F4DB5D
:103E50004FF0006101EB85208A141549FFF78BFFB5
:103E600004E0224651464046FFF785FFA74200D1B5
:103E70000FE06D1C4FF000090AEB440AA044381B08
:103E800087B2B7F5007F02DD4FF4007400E03C46D6
:103E9000B0E700BFFCF76DFB00BF9BE713B504461E
:103EA000012201A92046FFF78AFF1CBD000002087D
:103EB0006409002040EA01039B0703D009E008C918
:103EC000121F08C0042AFAD203E011F8013B00F8DF
:103ED000013B521EF9D27047D2B201E000F8012B2B
:103EE000491EFBD270470022F6E710B513460A467A
:103EF00004461946FFF7F0FF204610BD421E12F897
:103F0000013F002BFBD111F8013B02F8013B002BD4
:103F1000F9D1704730B505462A460B4612F8010B19
:103F200013F8014B08B1A042F8D01CB1002802D010
:103F30006D1CF1E7284630BD421C10F8011B00291A
:103F4000FBD1801A7047F0B480EA0102D40F42001E
:103F5000B2EB410F02D20246084611464A0042D057
:103F6000C30DDDB2C1F3C752AD1A202D35DAC1F34E
:103F7000160141F4000204B15242C5F1200602FAD2
:103F800006F12A411044B3EBD05F23D0C4B1012D18
:103F9000A0EBC35009DCF0BC4FF0004202EAC35270
:103FA000DBB200F5000000F04EBB400000F1807075
:103FB00000EBC350A0F1807040EAD170490009E0E5
:103FC000490841EAC071A0EBC35000F50000400869
:103FD00000EBC350F0BC00F02DBB6142012202EBAC
:103FE0004101001BF6E7F0BC704781F00041AAE7F1
:103FF00080F00040A7E780EA010210B502F000431C
:10400000400022D04A001FD0010E01EB1261C0F324
:104010005600C2F3560240F4000042F40002A0FB36
:10402000022000047F39140400D0401C50EA1240E2
:1040300001D44000491EC2B20C0604EBD010401C53
:104040004008802A02D003E0002010BD20F00100CB
:10405000002900DA0020184310BD30B480EA0102C4
:1040600002F0004530F0004221F0004013D090B142
:10407000C30DD40DC2F31601C0F31600E41A41F4C7
:10408000000140F400027D34914201D3641C00E041
:104090004900002C02DA30BC002070474FF40000C9
:1040A0000023914201D3891A034340084FEA41019A
:1040B000F7D151B1914202D14FF0004105E002D257
:1040C0004FF0010101E06FF0010103EBC4502844FF
:1040D00030BC00F0AFBA2DE9FE4F804681EA030004
:1040E000C00F0C46009021F0004123F00045B8EBD2
:1040F0000200A94105D24046214690461C460B4687
:10410000024623F00040104347D0270DC7F30A00B2
:10411000C3F30A510290401A019040286BDAC3F3AE
:10412000130040F4801B0098924620B10023D2EB8C
:10413000030A63EB0B0B01985946C0F1400250464D
:1041400000F047FA06460D4650465946019A00F0DF
:104150005FFA10EB08006141002487EA115284EAFB
:10416000E7731A4340D0009A62B3019A012A4FEADA
:10417000075215DC001B61EB02014FF0004202EA1E
:104180000752CDE90042001C41F5801132462B4612
:1041900000F096FA03B0BDE8F08F40462146F9E7FB
:1041A000001B61EB0201001C41F5801300185B410C
:1041B0002018A2F5001747EB030140EAD570B619A5
:1041C0006D4111E06D084FEA360645EAC0754FEAC9
:1041D0000752001B61EB0201001C41F580114908E8
:1041E0004FEA30000019514132462B4603B0BDE87A
:1041F000F04F00F056BA0098012240000023D0EBA7
:10420000020263EBE073009821464FEAE074B8EBDA
:10421000000061EB0401E9E783F000435BE781F014
:10422000004158E72DE9FE4F81EA030404F0004401
:1042300021F0004100944FF0000B23F0004350EABE
:1042400001045ED052EA03045BD0C3F30A54C1F305
:104250000A552C44A4F2F3340194A0FB0254C1F398
:10426000130141F48011C3F3130343F4801301FBE2
:10427000024400FB034E840A970A44EA815447EA49
:104280008357A4FB076802958D0A05FB07854FEA53
:10429000932C04FB0C542705029D4FEA065847EA6D
:1042A0001637B5EB08056EEB070C870E920E47EA42
:1042B000811742EA8312A7FB0201B6EB0B0164EB04
:1042C00000042B0D43EA0C335E1844EB1C50DA4615
:1042D0005146E7FB0201C5F313044FEA0B3343EAEF
:1042E00014534FEA0432019C43EA0603A4F10C0480
:1042F0000294009CCDE900B400F0E2F903B0BDE8FF
:10430000F08F00200146F9E72DE9F04D81EA030422
:1043100004F0004B21F0004514464FF0000A23F052
:10432000004150EA050220D054EA01021DD0C5F335
:104330000A570246C5F31303C1F31300C1F30A562B
:1043400040F4801543F48013A7EB0608101BD646F3
:1043500008F2FD3873EB050002D308F1010801E013
:1043600092185B41B8F1000F03DA00200146BDE866
:10437000F08D00204FF48011064684460EE0171B96
:1043800073EB050705D3121B63EB050306434CEAE9
:10439000010C49084FEA300092185B4150EA0107CE
:1043A000EDD152EA030012D082EA040083EA05014B
:1043B000084305D0101BAB4106D20122002306E0C2
:1043C00000224FF0004302E06FF0010253101AEB9D
:1043D00006004CEB085110EB0A0041EB0B01BDE865
:1043E000F04D00F05EB9C10F80EAE0700844CA07E2
:1043F0009623002100F027B996230022114600F0F1
:1044000022B900F0004220F00040C10DC0F31600B8
:1044100040F400007F2901DA00207047962903DC70
:10442000C1F19601C84001E096398840002AF4D0D5
:104430004042704720F00040C10DC0F3160040F428
:1044400000007F2901DA00207047962903DCC1F1C2
:104450009601C8407047963988407047C1F30A52A8
:1044600010B5C1F3130140F2FF3341F480119A42B9
:1044700001DA002010BD40F233439A42A2F23342E7
:1044800003DC524200F0B4F810BD904010BD00F0C3
:10449000004230F000400AD0C10D01F56071C0F358
:1044A000160042EA0151C20840071143704700203C
:1044B0000146704730B5041E71F1000404DB4FF073
:1044C0000044404264EB0101141E73F1000405DB5B
:1044D0001C464FF00043524263EB0403994208BF6D
:1044E000904230BD01F0004330B421F0004150EA69
:1044F000010206D00A0DA2F56072C1F31301002A71
:1045000002DC30BC00207047440F44EAC104C10003
:10451000E01830BC00EBC25000F08CB8002801DB82
:10452000C0F10040002901DBC1F100418142704728
:10453000002801DBC0F10040002901DBC1F100418E
:104540008842704730B50B460146002020220124E6
:1045500009E021FA02F59D4205D303FA02F5491B51
:1045600004FA02F52844151EA2F10102F1DC30BD67
:104570002DE9F05F0546002092469B468846064698
:10458000814640241BE0284641464746224600F02B
:104590002FF853465A46C01A914110D31146184677
:1045A000224600F016F82D1A67EB01084F46224606
:1045B0000120002100F00DF817EB00094E41201EEC
:1045C000A4F10104DFDC484631462A464346BDE8F3
:1045D000F09F202A04DB203A00FA02F10020704705
:1045E0009140C2F1200320FA03F319439040704731
:1045F000202A04DB203A21FA02F00021704721FA38
:1046000002F3D040C2F1200291400843194670479E
:10461000202A06DBCB17203A41FA02F043EAE07386
:1046200006E041FA02F3D040C2F120029140084373
:10463000194670470029A8BF7047401C490008BFB1
:1046400020F00100704710B4B0FA80FC00FA0CF0C2
:1046500050EA010404BF10BC704749B1CCF12004FA
:1046600021FA04F411FA0CF118BF01212143084387
:10467000A3EB0C01CB1D4FEA00614FEA102042BFB3
:10468000002010BC704700EBC35010440029A4BFA9
:1046900010BC7047401C490008BF20F0010010BC4E
:1046A000704710B5141E73F1000408DA401C41F184
:1046B000000192185B411A4301D120F0010010BDA6
:1046C0002DE9F04D92469B4611B1B1FA81F202E01C
:1046D000B0FA80F220329046FFF77BFF04460F4687
:1046E00040EA0A0041EA0B0153465A46084313D0F8
:1046F000114653EA010019D0C8F140025046FFF7B5
:1047000077FF05460E46504659464246FFF761FF81
:10471000084305D0012004E020463946BDE8F08D6D
:104720000020054346EAE0762C4337430A986305A8
:10473000E40AA0EB08000022FD0A44EA47540A30CC
:1047400002D500200146E9E7010510196941DDE9BC
:10475000084500196941BDE8F04DA2E7C1F30A52CE
:10476000C1F3130140F2FF3341F480119A4202DA9F
:1047700000200146704740F233439A42A2F233428E
:1047800002DC5242FFF734BFFFF723BF064C074D50
:1047900006E0E06840F0010394E807009847103411
:1047A000AC42F6D3FBF7A6FC90630008B0630008A8
:1047B00070B521F0004303430CD0C1F30A55002427
:1047C000D5EB040564EB0403D617AD1AB34102DB45
:1047D0000020014670BD201841EB025170BD0EB59E
:1047E000C10F80EAE0700844CA07002140F2334359
:1047F0008DE80E000A460B46FFF762FF03B000BDCE
:104800000EB540F2334102910021CDE900110A4674
:104810000B46FFF755FF03B000BD70B5C1F30A5258
:1048200001F000450024C1F3130140F2FF3341F4CD
:1048300080119A4201DA002070BD40F233439A425F
:10484000A2F2334203DC5242FFF7D2FE00E0904076
:104850002C43F1D0404270BD70B58C1810F8015B4C
:1048600015F0070301D110F8013B2A1106D110F809
:10487000012B03E010F8016B01F8016B5B1EF9D10D
:104880002B0705D40023521E0DD401F8013BFAE793
:1048900010F8013BCB1A921C03E013F8015B01F8FE
:1048A000015B521EF9D5A142D8D3002070BD000093
:1048B0000FB4084B10B504A902AA039800F018FC25
:1048C000044602A9002000F0AAFF204610BC5DF8B3
:1048D00014FB00001F580008490050EAC12018BF0F
:1048E00004204A0D18BF40F0010040F2FF72B2EB05
:1048F000515F08BF40F00200012808BF0520704743
:104900002DE9F74F144694B00021C4E9021115991E
:10491000079121F00045C9498D4206DC1599C4E98B
:10492000000117B00020BDE8F08FC549DFF814A3DF
:10493000A9423CDD0799C44E0029C44FC44A1599C9
:10494000534619DDFFF768FC554506D0C14AC24BF6
:10495000FFF762FCC4E900010AE04FF0D352BE4BFE
:10496000FFF75AFC32463B46FFF756FCC4E900010C
:1049700017B00120BDE8F08FFFF7ADFB554506D01D
:10498000B44AB54BFFF7A7FBC4E900010AE04FF0BA
:10499000D352B14BFFF79FFB32463B46FFF79BFBE1
:1049A000C4E9000117B04FF0FF30BDE8F08FAB490C
:1049B000A942159978DB21F0004183468846A84A30
:1049C000A84BFFF72FFC0022A74BFFF784FBFFF754
:1049D00024FF0990FFF703FF06460F469C4A534603
:1049E000FFF720FC43465A46FFF719FC80468A46EB
:1049F000984A994B30463946FFF714FC2A0D012599
:104A00000B9242465346FFF70AFC032DC4E900010E
:104A100039D00B98C1F30A51401A05EB45111139F1
:104A2000814230DA9148C346784400EB0510CDF856
:104A30000CA00C90D0E9002330463946FFF7F2FB7A
:104A400002460B460491069058460399FFF7E4FB93
:104A500080468A4602460B4658460399FFF7DCFB20
:104A6000049B069AFFF7D8FB83460C9803913946BE
:104A7000D0E902233046FFF7D5FB5A46039BFFF7E8
:104A8000CBFB6D1CBDE707980028A2BF099817B0A3
:104A9000BDE8F08F616881F000416160099817B04E
:104AA0004042BDE8F08FFFE784461598C1F313013B
:104AB000C0F30A50A0F2F5304FEA601800F01F066C
:104AC000C6F12000139000200690079041F4801E4C
:104AD00005206D4676B1664A08EB00017A4452F82B
:104AE000213002EB8101B3404A68139922FA01F1A7
:104AF000194305E05F4908EB0002794451F82210A0
:104B0000A1FB0E27A1FB0C131A449A4234BF0123C8
:104B1000002303EB070A05EB8003D3E901B70F4439
:104B20008F4234BF0121002193448B4411B193453E
:104B300002D903E0934501D2012100E00021C3E93D
:104B400001B7514445F82010011EA0F10100C1DC5D
:104B50000298059F00F10050800F12900298DDE945
:104B600003568000FFF73BFE834628460D91FFF772
:104B700047FE6FF01D02FFF71BFECDE90E01304628
:104B8000FFF73EFE6FF03D02FFF712FE80468A46B9
:104B90003846FFF735FE6FF05D02FFF709FE074666
:104BA000424653461191FFF796FADDE90E23FFF7CF
:104BB00092FA5A460D9BFFF78EFA00250E465A468A
:104BC00028460D9BFFF728FBDDE90E23FFF724FBAA
:104BD00042465346FFF720FB3A46119BFFF71FFB67
:104BE000DFF898A0244A5346FFF71CFB0746884687
:104BF000234A244B31462846FFF714FB3A464346E6
:104C0000FFF769FA074688464FF0A84253463146F7
:104C10002846FFF707FB3A464346FFF75CFA159A2A
:104C200012F0004F04D0129A81F0004152421292C9
:104C3000C4E90001129817B0BDE8F08FFB21E93FED
:104C40007CD90240FB21F93F7370032E8A19A33BE4
:104C5000000040543163621A61B4D03DFB213941F8
:104C600083C8C96D305FE43F0000E03F3C1800009E
:104C7000B81700009A170000182D4454FB21F93D85
:104C80003326A611460B113C2DE9FF4D21F00048BB
:104C900007460C46B8F1795F08DAFFF7BEFD002839
:104CA00001BF0020324904B0BDE8F08D3A462346EA
:104CB00010461946FFF7B6FA054602462D480E463D
:104CC0000B460621784400F05DF82A463346FFF78C
:104CD000A9FADDE9022382468B4638462146FFF7D2
:104CE000A1FA04460F4652465B4628463146FFF776
:104CF00099FA22463B46FFF78FFA07468A464FF05D
:104D0000FF3228463146FFF753FD1B4A90450ADA29
:104D10003A465346FFF780FA04B00022BDE8F04D52
:104D2000134BFFF77CBA154A4245A8BFA8F50015FA
:104D30004FF00004B8BF124D22462B46FFF76CFA25
:104D40000646884622462B4600200949FFF764FAAA
:104D500004460D463A46534630464146FFF75CFA54
:104D600004B022462B46BDE8F04DFFF758BA0000CC
:104D70000000F03F701500003333D33F0000E93FDF
:104D80000000D23F2DE9F0414F1E00EBC701044661
:104D9000D1E9000115461E4637F006020DD02A461D
:104DA0003346FFF73FFA7F1E04EBC703D3E9002326
:104DB000FFF791F937F00602F1D1022F25D0042F29
:104DC00013D0062F18BFBDE8F0812A463346FFF7FF
:104DD00029FAD4E90A23FFF77EF92A463346FFF77A
:104DE00021FAD4E90823FFF776F92A463346FFF77C
:104DF00019FAD4E90623FFF76EF92A463346FFF77E
:104E000011FAD4E90423FFF766F92A463346FFF77F
:104E100009FAD4E90223FFF75EF92A463346FFF781
:104E200001FAD4E90023BDE8F041FFF754B90000CE
:104E30002DE9FF4D054621F0004084B00C46B0F14D
:104E4000795F0BDA2846FFF747FD042808BF00F01A
:104E50006FF8284608B02146BDE8F08D2A460B467B
:104E60001046FFF7DFF906460F462A462346FFF7AE
:104E7000D9F9804626488A4632463B460521784481
:104E8000FFF780FF83461098029160B3214A224BBE
:104E900040465146FFF7C6F9CDE900015A46404663
:104EA0005146029BFFF7BEF982468846DDE90601BE
:104EB0004FF0FF32FFF77CFC52464346FFF7ACF958
:104EC00032463B46FFF7AEF9DDE90623FFF7A4F9CA
:104ED000DDE90023FFF7A0F908B02A462346BDE824
:104EE000F04DFFF79CB90B465A4630463946FFF75E
:104EF00099F9084A084BFFF7EEF842465346FFF788
:104F000091F908B02A462346BDE8F04DFFF7E3B813
:104F1000AE140000495555555555C5BF0122FFF740
:104F200047BC0022134610461146FFF7EDB90000BA
:104F3000024A00201107FFF73BBC000001FDFFFF04
:104F400002E008C8121F08C1002AFAD17047704752
:104F5000002001E001C1121F002AFBD170470000B0
:104F60000149086070470000240300202DE9FF5F1D
:104F700082B00021DDE90430020DDDF840B00343CA
:104F800018D044F61050A2F2FF3242431514119883
:104F900001281FD0A5EB0B00401C5FEA000A4FF070
:104FA00000064E4FDFF83891B046504615D5CAF18D
:104FB000000413E0119801244AA3012801D16FEAEB
:104FC0000B010298119AC0E90031C0E9024206B013
:104FD000BDE8F09FCBF10000DFE704460021404A26
:104FE000491842EB0450CDE9001012E0E00707D069
:104FF00032463B4640464946FFF714F9804689460B
:1050000032463B4610461946FFF70CF906460F4656
:105010006410002CEAD1DDE90401DDE90023BAF1D6
:10502000000F06DAFFF7FEF842464B46FFF7FAF8A4
:1050300005E0FFF769F942464B46FFF765F904467C
:105040000E460022284BFFF735FA03D84FF0FF3009
:10505000014607E00022254B20463146FFF73BF88A
:10506000FFF77CFB102409E0002C0ADB0A22002356
:10507000FFF77EFA039B30321A55641E50EA010294
:10508000F2D1641C039AC4F111031444119A012A49
:1050900003D0012208430DD10AE0084304D00020C8
:1050A0004FF0110B119072E7A3EB0B056D1E0DE095
:1050B0005B4504DD4FF0000205F1010504E003DA71
:1050C0004FF00002A5F10105002AECD002981199D9
:1050D000C0E90231C0E9004579E700000000144052
:1050E0000000F03F300000000000F0430000E03F0F
:1050F0002DE9FF4F95B09B468946064600250FE2F5
:10510000252877D100242746F84A0121059400E09C
:10511000044316F8013F203B01FA03F01042F7D197
:1051200030782A2811D06FF02F033078A0F13002A8
:10513000092A16D8059A44F0020402EB820203EB16
:1051400042021044761C0590EFE759F8042B0592B3
:10515000002A03DA504244F40054059044F002045B
:10516000761C30782E2816D116F8010F44F004046E
:105170002A280DD06FF02F023078A0F13003092BD0
:1051800009D807EB870302EB4303C718761CF3E744
:1051900059F8047B761C30786C280FD006DC4C283C
:1051A00017D068280DD06A2814D104E0742810D0D4
:1051B0007A280FD10DE044F400140AE044F480147E
:1051C00001E044F440147278824202D104F5801464
:1051D000761C761C307866280BD013DC582877D0E4
:1051E00009DC002875D04528F6D04628F4D0472899
:1051F0001AD19DE118E0632835D0642879D065285C
:1052000012D195E1702873D008DC6728F1D06928A5
:105210006FD06E280DD06F2806D1B5E073282CD042
:10522000752875D0782874D05A46179990476D1C08
:1052300075E1C4F30250022809D003280DD0D9F833
:10524000001004280DD00D6009F1040967E1D9F8B8
:105250000010EA17C1E90052F6E7D9F800100D80F6
:10526000F2E70D70F0E719F8041B8DF8001000202C
:105270008DF80100EA46012003E059F804AB4FF035
:10528000FF3061074FF0000102D40DE008F1010189
:105290008846B9420FDA8045F8DB1AF80810002971
:1052A000F4D108E008F1010188468142FADB1AF8DE
:1052B00008100029F6D105985B46A0EB08072146A7
:1052C0003846179A00F094FA284400EB080507E0E6
:1052D0004DE029E10DE01AF8010B5A461799904765
:1052E000B8F10108F7D25B4621463846179A13E118
:1052F00042E00A220092C4F302524FF0000A022A4E
:1053000008D059F804CB032A4FEAEC710AD00DE01B
:1053100029E02AE009F1070121F00702F2E802C1C1
:10532000914609E00FFA8CFC4FEAEC71042A03D194
:105330004FFA8CFC4FEAEC71002907DA0A4600218B
:10534000DCF1000C61EB02012D2202E0220504D504
:105350002B228DF80420012203E0E20701D0202255
:10536000F7E7904659E00A2102E010220DE01021F3
:105370004FF0000A00910BE010224FF0000A44F0B9
:1053800004040827009203E008224FF0000A00926C
:10539000C4F30252022A05D059F804CB0021032A93
:1053A00008D009E009F1070121F00702F2E802C183
:1053B000914605E01FFA8CFC042A01D10CF0FF0C89
:1053C0004FF00008220728D5702806D0009B83F0F4
:1053D000100353EA0A0305D00EE040228DF80420A2
:1053E000012208E05CEA010206D030228DF8042098
:1053F0008DF8050002229046009B83F0080353EAD3
:105400000A030AD15CEA010201D1620705D5302204
:105410008DF804204FF001087F1E582804D034A0D6
:1054200003900EA802900DE036A0F9E753466046BF
:10543000009AFFF79DF884460398825C0298401E0C
:10544000029002705CEA0100F0D1029806A9081AE5
:1054500000F1200A600702D524F4803400E001271F
:10546000574502DDA7EB0A0000E0002000EB0A012F
:10547000009005984144401A0590E00306D45B462D
:105480002146179A059800F0B3F90544002706E075
:1054900001A85A46C05D179990476D1C7F1C47456F
:1054A000F6DBE0030CD55B462146179A059800F021
:1054B0009FF9054404E030205A46179990476D1C27
:1054C0000099481E00900029F5DC08E00298029936
:1054D0005A460078491C0291179990476D1CBAF101
:1054E0000001AAF1010AF1DC65E1000009280100D0
:1054F000303132333435363738396162636465664A
:10550000000000003031323334353637383941420B
:10551000434445460000000000F058F90544761C5D
:10552000307800287FF4ECAD19B02846BDE8F08F44
:10553000620700D4062709F1070222F0070CFCE8F5
:105540000223E14603F000485FEA080C02D00FF2A4
:10555000702C0DE05FEA045C02D50FF2682C07E0C6
:105560005FEAC47C02D00FF2602C01E0AFF2700C55
:105570004FF0FF3823F00043CDF850C065280CD021
:1055800006DC452809D046281DD047283DD13DE0FE
:10559000662818D067287ED138E00021112F01DB62
:1055A000112000E0781CCDE9000106A90EA8FFF744
:1055B000DDFCDDE90F010E9A03910021009207F155
:1055C000010A04914DE04FF000400097CDE9011031
:1055D00006A90EA8FFF7CAFCDDE90F0203920E9B95
:1055E00011990022DDF80CA00093049211B9791CE6
:1055F00000EB010AB7EB0A0004D4C0F1FF3007F159
:10560000010A0490AAEB0700019044E0012F00DAA0
:1056100001270021112F01DD112000E03846CDE9DE
:10562000000106A90EA8FFF7A1FCDDE90F010E9A03
:105630000391002104910092BA4621070CD40399EA
:10564000514500DA8A46BAF1010F05DD009AAAF148
:105650000101515C302908D0B84202DA10F1040F80
:1056600006DA0121CDE9011015E0AAF10101E9E70F
:10567000002805DC049901440491AAEB000102E032
:10568000411C514500DD8A460499401A401C019096
:105690004FF000400290200704D40198504501DBF0
:1056A000CDF8048000208DF84F0002980DF14F07CF
:1056B000B0F1004F25D02B200E9002984FF0020839
:1056C00000280CDA404202902D200E9007E00A21BB
:1056D0000298FEF737FF3031029007F8011DB8F14C
:1056E0000001A8F10108F2DC02980028EFD1791E30
:1056F0000E980870307800F0200040F0450007F860
:10570000020D12A8C01B00F107081498007800B120
:10571000012000EB0A01019801EBE071059841447A
:10572000401A401E0590E00306D45B462146179AB6
:10573000059800F05DF805441498007818B15A46B1
:10574000179990476D1CE00324D55B462146179AB4
:10575000059800F04DF805441CE00498002807DB8C
:10576000DDE90301884203DD0098405C179901E000
:10577000179930205A469047049805F10105401CBE
:1057800004900198401E019004D12E205A4617998A
:1057900090476D1CBAF10001AAF1010ADDDC05E0B9
:1057A00017F8010B5A46179990476D1CB8F1000184
:1057B000A8F10108F4DC5B462146179A0598ABE690
:1057C0002D0000002B000000200000002DE9F0411A
:1057D000044600251E461746880404D405E03946D1
:1057E0002020B0476D1C641EF9D52846BDE8F08125
:1057F0002DE9F041044600251E469046C80301D518
:10580000302700E02027880404D505E041463846CB
:10581000B0476D1C641EF9D52846BDE8F0810A68C2
:10582000531C0B601070704700B5244B21F00042F0
:1058300087B09A42DCBF0022134629DD204B9A42F2
:1058400008D140B94FF00100FFF78AFBFFF769FB71
:1058500007B000BD03DBFFF761FB07B000BD02AA84
:10586000FFF74EF810F0030104BF0DF1080C9CE89F
:105870000F000DD0012001290ED0022914D00DF106
:10588000080C00909CE80F00FFF7D2FA07B000BDAB
:10589000FFF7FAF907B000BD0DF1080C00909CE885
:1058A0000F00FFF7C5FA05E00DF1080C9CE80F00AA
:1058B000FFF7EAF907B081F0004100BDFB21E93FA5
:1058C0000000F07F10B5002821D0114B0022001FEE
:1058D000196803E0814203D80A4649680029F9D1D2
:1058E00052B11368841A9C4204D1006818441060B5
:1058F000104602E0506000E0186039B102680B1AEF
:10590000934203D10B681A4402604968416010BD9C
:105910001C030020F0B50B30154D20F007010024CA
:10592000144A0FE003688B420BD38B4205D95E1AF1
:1059300043184768C3E9006700E04368136002C08A
:1059400004E0021D10680028ECD12046002802D196
:10595000286808B10020F0BD064A07481060074AD1
:10596000121A22F00702C0E9002401202860D7E7BC
:10597000200300201C0300206C0D0020680F002075
:1059800000B5254B21F0004287B09A4203DC00228B
:10599000134600922BE0214B9A4208D140B94FF0B8
:1059A0000100FFF7DDFAFFF7BCFA07B000BD03DB2B
:1059B000FFF7B4FA07B000BD02AAFEF7A1FF10F08E
:1059C00003014FF001000DD0012914D002291AD093
:1059D0000DF1080C9CE80F00FFF756F907B081F0B5
:1059E000004100BD0DF1080C00909CE80F00FFF78E
:1059F0001FFA07B000BD0DF1080C9CE80F00FFF77F
:105A000043F907B000BD0DF1080C00909CE80F00B1
:105A1000FFF70EFAE2E70000FB21E93F0000F07F0C
:105A20000000000000000000002F00000000070040
:105A3000070000147F147F1400242A7F2A120062BA
:105A40006408132300364955225000000503000066
:105A500000001C224100000041221C000014083EEE
:105A600008140008083E0808000000A060000008B4
:105A70000808080800006060000000201008040208
:105A8000003E5149453E0000427F400000426151C6
:105A90004946002141454B31001814127F10002760
:105AA00045454539003C4A49493000017109050323
:105AB00000364949493600064949291E0000363654
:105AC00000000000563600000008142241000014B7
:105AD0001414141400004122140800020151090694
